###############################################################################
#                                                                             #
# IAR C/C++ Compiler V6.21.3.50641 for Atmel AVR        28/Sep/2016  19:01:53 #
# Copyright 1996-2013 IAR Systems AB.                                         #
#                                                                             #
#    Source file  =  C:\Users\Administrator\Desktop\ATmega128Project\src\beep #
#                    .c                                                       #
#    Command line =  C:\Users\Administrator\Desktop\ATmega128Project\src\beep #
#                    .c --cpu=m128a -ms -o C:\Users\Administrator\Desktop\ATm #
#                    ega128Project\Debug\Obj\ -lCN                            #
#                    C:\Users\Administrator\Desktop\ATmega128Project\Debug\Li #
#                    st\ -lb C:\Users\Administrator\Desktop\ATmega128Project\ #
#                    Debug\List\ -y --initializers_in_flash --no_cse          #
#                    --no_inline --no_code_motion --no_cross_call             #
#                    --no_clustering --no_tbaa --debug                        #
#                    -DENABLE_BIT_DEFINITIONS -e -I                           #
#                    C:\Users\Administrator\Desktop\ATmega128Project\inc\     #
#                    --eeprom_size 4096 --dlib --dlib_config "D:\Program      #
#                    Files (x86)\IAR Systems\Embedded Workbench               #
#                    6.5\avr\LIB\DLIB\dlAVR-3s-ec_mul-f.h" --vla              #
#                    --use_c++_inline -On                                     #
#    List file    =  C:\Users\Administrator\Desktop\ATmega128Project\Debug\Li #
#                    st\beep.lst                                              #
#    Object file  =  C:\Users\Administrator\Desktop\ATmega128Project\Debug\Ob #
#                    j\beep.r90                                               #
#                                                                             #
#                                                                             #
###############################################################################

C:\Users\Administrator\Desktop\ATmega128Project\src\beep.c
      1          //蜂鸣器的驱动文件
      2          
      3          #include <iom128a.h>

   \                                 In  segment ABSOLUTE, at 0x31
   \   union <unnamed> volatile __io _A_DDRD
   \                     _A_DDRD:
   \   00000000                      DS8 1

   \                                 In  segment ABSOLUTE, at 0x32
   \   union <unnamed> volatile __io _A_PORTD
   \                     _A_PORTD:
   \   00000000                      DS8 1
      4          #include "beep.h"
      5          #include "delay.h"
      6          
      7          /*蜂鸣器初始化，配置PD6端口为输出模式*/

   \                                 In  segment CODE, align 2, keep-with-next
      8          void beepInit(void)
   \                     beepInit:
      9          {
     10          	DDRD  |= 1 << 6;		//将DDRD的DDD6位置1，配置为输出模式
   \   00000000   9A8E               SBI     0x11, 0x06
     11          	BEEP1;					//关闭蜂鸣器  
   \   00000002   9A96               SBI     0x12, 0x06
     12          }
   \   00000004   9508               RET
   \   00000006                      REQUIRE _A_DDRD
   \   00000006                      REQUIRE _A_PORTD
     13          
     14          
     15          

   \                                 In  segment CODE, align 2, keep-with-next
     16          void beepBeep(unsigned int time)
   \                     beepBeep:
     17          {
   \   00000000   939A               ST      -Y, R25
   \   00000002   938A               ST      -Y, R24
   \   00000004   01C8               MOVW    R25:R24, R17:R16
     18          	BEEP0;
   \   00000006   9896               CBI     0x12, 0x06
     19          	delay_ms(time);
   \   00000008   018C               MOVW    R17:R16, R25:R24
   \   0000000A   ........           CALL    delay_ms
     20          	BEEP1;	
   \   0000000E   9A96               SBI     0x12, 0x06
     21          }
   \   00000010   9189               LD      R24, Y+
   \   00000012   9199               LD      R25, Y+
   \   00000014   9508               RET
   \   00000016                      REQUIRE _A_PORTD
     22          

   Maximum stack usage in bytes:

   CSTACK RSTACK Function
   ------ ------ --------
      2      2   beepBeep
        2      2   -> delay_ms
      0      2   beepInit


   Segment part sizes:

   Bytes  Function/Label
   -----  --------------
       1  _A_DDRD
       1  _A_PORTD
      22  beepBeep
       6  beepInit

 
  2 bytes in segment ABSOLUTE
 28 bytes in segment CODE
 
 28 bytes of CODE memory
  0 bytes of DATA memory (+ 2 bytes shared)

Errors: none
Warnings: none
