###############################################################################
#                                                                             #
# IAR C/C++ Compiler V6.21.3.50641 for Atmel AVR        28/Sep/2016  19:25:25 #
# Copyright 1996-2013 IAR Systems AB.                                         #
#                                                                             #
#    Source file  =  C:\Users\Administrator\Desktop\ATmega128Project\src\main #
#                    .c                                                       #
#    Command line =  C:\Users\Administrator\Desktop\ATmega128Project\src\main #
#                    .c --cpu=m128a -ms -o C:\Users\Administrator\Desktop\ATm #
#                    ega128Project\Debug\Obj\ -lCN                            #
#                    C:\Users\Administrator\Desktop\ATmega128Project\Debug\Li #
#                    st\ -lb C:\Users\Administrator\Desktop\ATmega128Project\ #
#                    Debug\List\ -y --initializers_in_flash --no_cse          #
#                    --no_inline --no_code_motion --no_cross_call             #
#                    --no_clustering --no_tbaa --debug                        #
#                    -DENABLE_BIT_DEFINITIONS -e -I                           #
#                    C:\Users\Administrator\Desktop\ATmega128Project\inc\     #
#                    --eeprom_size 4096 --dlib --dlib_config "D:\Program      #
#                    Files (x86)\IAR Systems\Embedded Workbench               #
#                    6.5\avr\LIB\DLIB\dlAVR-3s-ec_mul-f.h" --vla              #
#                    --use_c++_inline -On                                     #
#    List file    =  C:\Users\Administrator\Desktop\ATmega128Project\Debug\Li #
#                    st\main.lst                                              #
#    Object file  =  C:\Users\Administrator\Desktop\ATmega128Project\Debug\Ob #
#                    j\main.r90                                               #
#                                                                             #
#                                                                             #
###############################################################################

C:\Users\Administrator\Desktop\ATmega128Project\src\main.c
      1          /*ATmega128开发板的工程main文件，个人学习使用*/
      2          //TODO 使用includes包含头文件,在includes.h中包含所有需要用到的头文件
      3          
      4          #include <stdio.h>
      5          #include <stdlib.h>
      6          #include "led.h"			//LED灯的头文件
      7          #include "delay.h"		//延时函数的头文件
      8          #include "beep.h"			//蜂鸣器的头文件
      9          #include "ledshow.h"		//八段式数码管的头文件
     10          #include "my_math.h"		//一些数学处理函数
     11          #include "key.h"			//按键的头文件
     12          #include "ds18b20.h"		//温度传感器的头文件
     13          #include "timer.h"		//定时/计数器的头文件 
     14          #include "uart.h"			//串口的头文件
     15          #include "step_motor.h"	//步进电机的头文件
     16          #include "ds1302.h"		//实时时钟的头文件
     17          #include "e2prom.h"		//EEPROM的头文件
     18          #include "lcd1602.h"		//1602字符屏的头文件
     19          #include "adc.h"			//AD转换的头文件
     20          #include "dac_tlc5615.h"	//TLC5615 DAC芯片的头文件
     21          #include "song.h"			//单片机使用蜂鸣器播放音乐	TODO : 暂时不能实现
     22          #include "redctrl.h"		//红外接收的头文件
     23          #include "removectrl.h"	//无线遥控器的头文件
     24          #include "ISR.h"
     25          
     26          
     27          

   \                                 In  segment NEAR_Z, align 1, keep-with-next
   \   00000000                      REQUIRE `?<Segment init: NEAR_Z>`
     28          unsigned int temp_num = 0;		//18B20温度
   \                     temp_num:
   \   00000000                      DS8 2
     29          

   \                                 In  segment NEAR_I, align 1, keep-with-next
   \   00000000                      REQUIRE `?<Segment init: NEAR_I>`
     30          unsigned char comp = 128; 		//PWM输出
   \                     comp:
   \   00000000                      DS8 1
   \   00000001                      REQUIRE `?<Initializer for comp>`
     31          
     32          /*系统初始化函数*/

   \                                 In  segment CODE, align 2, keep-with-next
     33          void systemInit(void)
   \                     systemInit:
     34          {
     35          	//系统各个模块的初始化函数调用
     36          	ledInit();				//led灯初始化
   \   00000000   ........           CALL    ledInit
     37          //	DAC_IO_Init();			//DAC IO口配置
     38          //	beepInit();				//蜂鸣器初始化
     39          //	redCtrlInit();			//红外接收头的初始化
     40          //	removeCtrlInit();		//无线遥控初始化
     41          //	stepMotorInit();		//步进电机初始化
     42          	ledShowInit();			//数码管初始化
   \   00000004   ........           CALL    ledShowInit
     43          //	independentKeyInit();	//独立按键初始化	
     44          //	keyInit();				//矩阵键盘按键初始化
     45          //	intKeyInit();			//外部中断按键初始化为输入模式
     46          //	interruptKeyInit();		//外部中断使能
     47          //	DS18B20_Init();			//DS18B20复位
     48          //	timer0Init(OVF);		//定时器0初始化，溢出中断使能		OVF or COMP
     49          //	timer1Init();			//定时器1初始化
     50          	USART_Init(115200);		//串口初始化	
   \   00000008   E000               LDI     R16, 0
   \   0000000A   EC12               LDI     R17, 194
   \   0000000C   E021               LDI     R18, 1
   \   0000000E   E030               LDI     R19, 0
   \   00000010   ........           CALL    USART_Init
     51          //	ds1302_Init();			//DS1302实时时钟初始化
     52          //	lcd1602Init();			//LCD1602初始化
     53          //	adc_Init();				//ADC初始化，使能中断
     54          //	SPI_MasterInit();		//SPI进行DAC转换初始化
     55          	
     56          }
   \   00000014   9508               RET
     57          
     58          
     59          /*系统的主函数*/

   \                                 In  segment CODE, align 2, keep-with-next
     60          int main(void)
   \                     main:
     61          {
   \   00000000   939A               ST      -Y, R25
   \   00000002   938A               ST      -Y, R24
     62          	/*变量定义*/
     63          //	unsigned char temp;
     64          //	unsigned char num = 255;
     65          //	unsigned long int num = 0;
     66          	unsigned int t = 0;
   \   00000004   E080               LDI     R24, 0
   \   00000006   E090               LDI     R25, 0
     67          //	unsigned char *p = "jinpnegju";
     68          //	unsigned char pos = 0x10;
     69          //	unsigned char temp_key = 0xff;
     70          //	unsigned char key = 0xff;
     71              
     72          		
     73          	/*需要用到的模块初始化*/
     74          	systemInit();		//系统初始化
   \   00000008   ....               RCALL   systemInit
     75          	
     76          
     77          	/*赋初值*/
     78          //	temp = e2prom_Read_Byte(0x0010);
     79          //	_delay_ms(10);
     80          //	temp++;
     81          //	e2prom_Write_Byte(0x0010,temp);
     82          //	_delay_ms(10);
     83          //	printf("\r\n开机次数为% 3d\r\n",temp);
     84          	
     85          /*	向EEPROM中写入255个字节的数据，读出之后通过串口发送。测试EEPROM使用
     86          	for(temp =0;temp < 255;temp++)
     87          	{
     88          		e2prom_Write_Byte(0x10+temp,temp);
     89          		_delay_ms(5);
     90          	}
     91          	
     92          	for(temp = 0;temp < 255;temp++)
     93          	{
     94          		num = e2prom_Read_Byte(0x10 + temp);
     95          		printf("% 3d\t",num);
     96          	}
     97          	printf("\r\n");
     98          
     99          */
    100          
    101          //	lcd1602_Clear();
    102          //	lcd1602_Show_Str(0x00,"Welcome JINJIN");
    103          	
    104          	/*开启全局中断，进入程序主循环*/
    105          //	SREG |= (1 << 7);	//全局中断使能
    106          	
    107              printf(" 难道不能发送汉字\r\n");
   \   0000000A   ....               LDI     R16, LOW(`?<Constant " \\304\\321\\265\\300\\262\\273\\304\\334\\`)
   \   0000000C   ....               LDI     R17, (`?<Constant " \\304\\321\\265\\300\\262\\273\\304\\334\\`) >> 8
   \   0000000E   ........           CALL    printf
    108          	printf("POWER ON!!This is a test for start!\r\n");
   \   00000012   ....               LDI     R16, LOW(`?<Constant "POWER ON!!This is a t...">`)
   \   00000014   ....               LDI     R17, (`?<Constant "POWER ON!!This is a t...">`) >> 8
   \   00000016   ........           CALL    printf
    109          	
    110          	while(1)
    111          	{
    112                  printf("请输入T的值\r\n");
   \                     ??main_0:
   \   0000001A   ....               LDI     R16, LOW(`?<Constant "\\307\\353\\312\\344\\310\\353T\\265\\304\\`)
   \   0000001C   ....               LDI     R17, (`?<Constant "\\307\\353\\312\\344\\310\\353T\\265\\304\\`) >> 8
   \   0000001E   ........           CALL    printf
    113          //        scanf("%d",&t);
    114                  t = ReceiveUINT();
   \   00000022   ........           CALL    ReceiveUINT
   \   00000026   01C8               MOVW    R25:R24, R17:R16
    115                  while(t--)
   \                     ??main_1:
   \   00000028   01FC               MOVW    R31:R30, R25:R24
   \   0000002A   01CF               MOVW    R25:R24, R31:R30
   \   0000002C   9701               SBIW    R25:R24, 1
   \   0000002E   2BEF               OR      R30, R31
   \   00000030   F3A1               BREQ    ??main_0
    116                  {
    117                      printf("我是金鹏举\r\n");
   \   00000032   ....               LDI     R16, LOW(`?<Constant "\\316\\322\\312\\307\\275\\360\\305\\364\\2`)
   \   00000034   ....               LDI     R17, (`?<Constant "\\316\\322\\312\\307\\275\\360\\305\\364\\2`) >> 8
   \   00000036   ........           CALL    printf
   \   0000003A   CFF6               RJMP    ??main_1
    118                  }
    119                  
    120          //		DS1302_Test();
    121          		
    122          //		LED_TURN(1);
    123          //		_delay_ms(1000);
    124          		
    125          //		Song();
    126          		
    127          //		_delay_ms(500);
    128          //		lcd1602_Write_Command(0x1c);		//右移命令，0x18是左平移
    129          		
    130          /*********************步进电机的测试 开始***************************/
    131          		
    132          //		stepMotorForeward();		//正转一周
    133          //		stepMotorBackward();		//反转一周
    134          		
    135          /*********************步进电机的测试 结束***************************/
    136          
    137          /*********************4×4按键的测试 开始***************************/
    138          		//采用循环扫描的方式判断是否有按键，占内存，不建议使用
    139          //		keyTest();
    140          		
    141          /*********************4×4按键的测试 结束***************************/
    142          		/*
    143          		pos = 0x10;
    144          		p = "jinpnegju";
    145          		lcd1602_Clear();
    146          		lcd1602_Show_Str(0x00,"Welcome to");
    147          		_delay_ms(250);
    148          		while(*p)
    149          		{
    150          			lcd1602_Show_Char(pos,*p);
    151          			pos++;
    152          			p++;
    153          			_delay_ms(250);
    154          		}
    155          		_delay_ms(250);
    156          		
    157          		*/
    158          		
    159          	//函数无问题，显示不会出现最后一位特别亮的情况
    160          //		ledShow(dua_table);
    161          		
    162          //		ledShowSTR("ABCDEFG9",wei_table,3);
    163          //		
    164          //		ledShowNumber(0x1976A523,wei_table,-1,16);
    165          //		_delay_ms(4);
    166          		
    167          		//DS18B20采集太快会出现异常，定时0.5s取样一次
    168          //		if(count == 50)
    169          //		{
    170          //			count = 0;
    171          			//不是乘以0.0625的原因是为了把小数点后一位数据也转化为可以显示的数据
    172          //			temp_num = (int)(ds18b20_read_temperature() * 0.625);	
    173          //		}
    174          		
    175          //		if(count >= 1)		//500ms读取温度一次
    176          //		{
    177          //			count = 0;		//从新计数
    178          //			ledShowNumber(temp,wei_table);
    179          //		}
    180          //		if(count >= 200)
    181          //		{
    182          //			count = 0;
    183          //			temp ++;
    184          //			if(temp == 9)
    185          //			{
    186          //				temp = 0;
    187          //			}
    188          //		}
    189          //		
    190          //		ledShow(dua_table + temp);
    191          //		
    192          //		delay_ms(20);
    193          	
    194          //		DAC_Run_Led();
    195          		
    196          //		SPI_ADC_RunLed();
    197          		/*
    198          		temp_key = keyBoardScan();
    199          		
    200          		//当有按键按下时
    201          		if(temp_key != 0xff)
    202          		{
    203          			switch(temp_key)
    204          			{
    205          			  case '1':
    206          				LED8 = ~LED8;
    207          				START_ADC;		//启动一次ADC转换
    208          				ledShowNumber(1,wei_table,7,10);
    209          				t = 1;
    210          				printf("您好，我按了第%d%d个按键\r\n",t,t);
    211          				break;
    212          			  case '2':
    213          				LED8 = ~LED8;
    214          				START_ADC;
    215          				ledShowNumber(2,wei_table,7,10);
    216          				t = 2;
    217          				printf("你按了第%d个按键\r\n",t);
    218          				break;
    219          			  default:
    220          				break;				
    221          			}
    222          		}
    223          		else
    224          		{
    225          //			ledShowNumber(t,wei_table,7,10);
    226          		}
    227          	*/
    228          		
    229          //		ledBreath(0x00);
    230          	}
    231          }

   \                                 In  segment NEAR_ID, align 1, keep-with-next
   \                     `?<Initializer for <Constant " \\304\\321\\265\\300`:
   \   00000000   C420B5D1B2C0       DC8 " \304\321\265\300\262\273\304\334\267\242\313\315\272\272\327\326\015\012"
   \              C4BBB7DCCBA2
   \              BACDD7BA0DD6
   \              000A        

   \                                 In  segment NEAR_ID, align 1, keep-with-next
   \                     `?<Initializer for <Constant "POWER ON!!This is`:
   \   00000000   4F5045572052       DC8 "POWER ON!!This is a test for start!\015\012"
   \              4E4F21216854
   \              736969202073
   \              206165747473
   \              6620726F7320
   \              617474720D21
   \              000A        

   \                                 In  segment NEAR_ID, align 1, keep-with-next
   \                     `?<Initializer for <Constant "\\307\\353\\312\\344\\`:
   \   00000000   EBC7E4CAEBC8       DC8 "\307\353\312\344\310\353T\265\304\326\265\015\012"
   \              B554D6C40DB5
   \              000A        

   \                                 In  segment NEAR_ID, align 1, keep-with-next
   \                     `?<Initializer for <Constant "\\316\\322\\312\\307\\`:
   \   00000000   D2CEC7CAF0BD       DC8 "\316\322\312\307\275\360\305\364\276\331\015\012"
   \              F4C5D9BE0A0D
   \              00          

   \                                 In  segment NEAR_ID, align 1, keep-with-next
   \                     `?<Initializer for comp>`:
   \   00000000   80                 DC8 128

   \                                 In  segment NEAR_I, align 1, keep-with-next
   \   00000000                      REQUIRE `?<Segment init: NEAR_I>`
   \                     `?<Constant " \\304\\321\\265\\300\\262\\273\\304\\334\\`:
   \   00000000                      DS8 20
   \   00000014                      REQUIRE `?<Initializer for <Constant " \\304\\321\\265\\300`

   \                                 In  segment NEAR_I, align 1, keep-with-next
   \   00000000                      REQUIRE `?<Segment init: NEAR_I>`
   \                     `?<Constant "POWER ON!!This is a t...">`:
   \   00000000                      DS8 38
   \   00000026                      REQUIRE `?<Initializer for <Constant "POWER ON!!This is`

   \                                 In  segment NEAR_I, align 1, keep-with-next
   \   00000000                      REQUIRE `?<Segment init: NEAR_I>`
   \                     `?<Constant "\\307\\353\\312\\344\\310\\353T\\265\\304\\`:
   \   00000000                      DS8 14
   \   0000000E                      REQUIRE `?<Initializer for <Constant "\\307\\353\\312\\344\\`

   \                                 In  segment NEAR_I, align 1, keep-with-next
   \   00000000                      REQUIRE `?<Segment init: NEAR_I>`
   \                     `?<Constant "\\316\\322\\312\\307\\275\\360\\305\\364\\2`:
   \   00000000                      DS8 13
   \   0000000D                      REQUIRE `?<Initializer for <Constant "\\316\\322\\312\\307\\`
    232          
    233          
    234          
    235          
    236          
    237          
    238          

   Maximum stack usage in bytes:

   CSTACK RSTACK Function
   ------ ------ --------
      2      2   main
        2      2   -> ReceiveUINT
        2      2   -> printf
        2      2   -> systemInit
      0      2   systemInit
        0      2   -> USART_Init
        0      2   -> ledInit
        0      2   -> ledShowInit


   Segment part sizes:

   Bytes  Function/Label
   -----  --------------
      20  ?<Constant " \304\321\265\300\262\273\304\334\
      38  ?<Constant "POWER ON!!This is a t...">
      14  ?<Constant "\307\353\312\344\310\353T\265\304\
      13  ?<Constant "\316\322\312\307\275\360\305\364\2
      20  ?<Initializer for <Constant " \304\321\265\300
      38  ?<Initializer for <Constant "POWER ON!!This is
      14  ?<Initializer for <Constant "\307\353\312\344\
      13  ?<Initializer for <Constant "\316\322\312\307\
       1  ?<Initializer for comp>
       1  comp
      60  main
      22  systemInit
       2  temp_num
      14  -- Other

 
 82 bytes in segment CODE
 14 bytes in segment INITTAB
 86 bytes in segment NEAR_I
 86 bytes in segment NEAR_ID
  2 bytes in segment NEAR_Z
 
 168 bytes of CODE memory (+ 14 bytes shared)
  88 bytes of DATA memory

Errors: none
Warnings: none
