###############################################################################
#                                                                             #
# IAR C/C++ Compiler V6.21.3.50641 for Atmel AVR        28/Sep/2016  19:17:21 #
# Copyright 1996-2013 IAR Systems AB.                                         #
#                                                                             #
#    Source file  =  C:\Users\Administrator\Desktop\ATmega128Project\src\uart #
#                    .c                                                       #
#    Command line =  C:\Users\Administrator\Desktop\ATmega128Project\src\uart #
#                    .c --cpu=m128a -ms -o C:\Users\Administrator\Desktop\ATm #
#                    ega128Project\Debug\Obj\ -lCN                            #
#                    C:\Users\Administrator\Desktop\ATmega128Project\Debug\Li #
#                    st\ -lb C:\Users\Administrator\Desktop\ATmega128Project\ #
#                    Debug\List\ -y --initializers_in_flash --no_cse          #
#                    --no_inline --no_code_motion --no_cross_call             #
#                    --no_clustering --no_tbaa --debug                        #
#                    -DENABLE_BIT_DEFINITIONS -e -I                           #
#                    C:\Users\Administrator\Desktop\ATmega128Project\inc\     #
#                    --eeprom_size 4096 --dlib --dlib_config "D:\Program      #
#                    Files (x86)\IAR Systems\Embedded Workbench               #
#                    6.5\avr\LIB\DLIB\dlAVR-3s-ec_mul-f.h" --vla              #
#                    --use_c++_inline -On                                     #
#    List file    =  C:\Users\Administrator\Desktop\ATmega128Project\Debug\Li #
#                    st\uart.lst                                              #
#    Object file  =  C:\Users\Administrator\Desktop\ATmega128Project\Debug\Ob #
#                    j\uart.r90                                               #
#                                                                             #
#                                                                             #
###############################################################################

C:\Users\Administrator\Desktop\ATmega128Project\src\uart.c
      1          /* 从原理图知道  UART0的RXD接PE0，TXD接PE1 */
      2          /* 从原理图知道  UART1的RXD接PD2, TXD接PD3*/
      3          
      4          
      5          #include <iom128a.h>

   \                                 In  segment ABSOLUTE, at 0x29
   \   union <unnamed> volatile __io _A_UBRR0L
   \                     _A_UBRR0L:
   \   00000000                      DS8 1

   \                                 In  segment ABSOLUTE, at 0x2a
   \   union <unnamed> volatile __io _A_UCSR0B
   \                     _A_UCSR0B:
   \   00000000                      DS8 1

   \                                 In  segment ABSOLUTE, at 0x2b
   \   union <unnamed> volatile __io _A_UCSR0A
   \                     _A_UCSR0A:
   \   00000000                      DS8 1

   \                                 In  segment ABSOLUTE, at 0x2c
   \   union <unnamed> volatile __io _A_UDR0
   \                     _A_UDR0:
   \   00000000                      DS8 1

   \                                 In  segment ABSOLUTE, at 0x90
   \   union <unnamed> volatile __io _A_UBRR0H
   \                     _A_UBRR0H:
   \   00000000                      DS8 1

   \                                 In  segment ABSOLUTE, at 0x95
   \   union <unnamed> volatile __io _A_UCSR0C
   \                     _A_UCSR0C:
   \   00000000                      DS8 1
      6          #include "uart.h"
      7          #include <stdio.h>
      8          #include <stdarg.h>
      9          #include <string.h>
     10          #include <math.h>
     11          #include <stdlib.h>
     12          
     13          #ifdef __GNUC__
     14            /* With GCC/RAISONANCE, small printf (option LD Linker->Libraries->Small printf
     15               set to 'Yes') calls __io_putchar() */
     16            #define PUTCHAR_PROTOTYPE int __io_putchar(int ch)
     17          #else
     18            #define PUTCHAR_PROTOTYPE int fputc(int ch, FILE *f)
     19          #endif /* __GNUC__ */
     20          
     21          
     22          
     23          
     24          //串口初始化，通过宏定义USART0/USART1来控制初始化哪一个串口

   \                                 In  segment CODE, align 2, keep-with-next
     25          void USART_Init(unsigned long baud)
   \                     USART_Init:
     26          {
   \   00000000   ........           CALL    ?PROLOGUE4_L09
   \   00000004   01C8               MOVW    R25:R24, R17:R16
   \   00000006   01D9               MOVW    R27:R26, R19:R18
     27          	//USART控制和状态寄存器
     28          	UCSRnA = 0x00;		//设置为单倍率模式
   \   00000008   E000               LDI     R16, 0
   \   0000000A   B90B               OUT     0x0B, R16
     29          	UCSRnB = 0x18;//0x98;		//接收和发送使能。接收中断允许
   \   0000000C   E108               LDI     R16, 24
   \   0000000E   B90A               OUT     0x0A, R16
     30          	UCSRnC = 0x06;		//异步通信，无校验，1位停止位，8位数据位
   \   00000010   E006               LDI     R16, 6
   \   00000012   9300....           STS     _A_UCSR0C, R16
     31          	//USART波特率寄存器，设置波特率
     32          	UBRRnH = BAUD_H(baud);	//设置波特率高位
   \   00000016   E140               LDI     R20, 16
   \   00000018   E050               LDI     R21, 0
   \   0000001A   E060               LDI     R22, 0
   \   0000001C   E070               LDI     R23, 0
   \   0000001E   018C               MOVW    R17:R16, R25:R24
   \   00000020   019D               MOVW    R19:R18, R27:R26
   \   00000022   ........           CALL    ?L_EC_MUL_L03
   \   00000026   01A8               MOVW    R21:R20, R17:R16
   \   00000028   01B9               MOVW    R23:R22, R19:R18
   \   0000002A   E000               LDI     R16, 0
   \   0000002C   E810               LDI     R17, 128
   \   0000002E   E720               LDI     R18, 112
   \   00000030   E030               LDI     R19, 0
   \   00000032   ........           CALL    ?UL_DIVMOD_L03
   \   00000036   01F8               MOVW    R31:R30, R17:R16
   \   00000038   9731               SBIW    R31:R30, 1
   \   0000003A   2FEF               MOV     R30, R31
   \   0000003C   E0F0               LDI     R31, 0
   \   0000003E   93E0....           STS     _A_UBRR0H, R30
     33          	UBRRnL = BAUD_L(baud);
   \   00000042   E140               LDI     R20, 16
   \   00000044   E050               LDI     R21, 0
   \   00000046   E060               LDI     R22, 0
   \   00000048   E070               LDI     R23, 0
   \   0000004A   018C               MOVW    R17:R16, R25:R24
   \   0000004C   019D               MOVW    R19:R18, R27:R26
   \   0000004E   ........           CALL    ?L_EC_MUL_L03
   \   00000052   01A8               MOVW    R21:R20, R17:R16
   \   00000054   01B9               MOVW    R23:R22, R19:R18
   \   00000056   E000               LDI     R16, 0
   \   00000058   E810               LDI     R17, 128
   \   0000005A   E720               LDI     R18, 112
   \   0000005C   E030               LDI     R19, 0
   \   0000005E   ........           CALL    ?UL_DIVMOD_L03
   \   00000062   950A               DEC     R16
   \   00000064   B909               OUT     0x09, R16
     34          }
   \   00000066   E0E4               LDI     R30, 4
   \   00000068   ........           JMP     ?EPILOGUE_B4_L09
   \   0000006C                      REQUIRE _A_UCSR0A
   \   0000006C                      REQUIRE _A_UCSR0B
   \   0000006C                      REQUIRE _A_UCSR0C
   \   0000006C                      REQUIRE _A_UBRR0H
   \   0000006C                      REQUIRE _A_UBRR0L
     35          
     36          
     37          //发送一个字节的数据

   \                                 In  segment CODE, align 2, keep-with-next
     38          void SendByte(unsigned char data)
   \                     SendByte:
   \                     ??SendByte_0:
     39          {
     40          	//1.等待发送缓存器为空 判断UCSR0A的UDRE位是否为空 
     41          	while( !( UCSRnA & (1 << 5) ) );
   \   00000000   9B5D               SBIS    0x0B, 0x05
   \   00000002   CFFE               RJMP    ??SendByte_0
     42          	//将数据放入发送缓冲器，发送数据
     43          	UDRn = data;
   \   00000004   B90C               OUT     0x0C, R16
     44          	
     45          	//2.如果使用TXC，0x40判断，则需要先接受数据，并且写1清零
     46          //	while(!( UCSR0A & (1 << 6) ));
     47          //	UCSR0A |= 0x40;
     48          }
   \   00000006   9508               RET
   \   00000008                      REQUIRE _A_UCSR0A
   \   00000008                      REQUIRE _A_UDR0
     49          
     50          
     51          //发送一个字符串

   \                                 In  segment CODE, align 2, keep-with-next
     52          void SendStr(unsigned char *str)
   \                     SendStr:
     53          {
   \   00000000   93BA               ST      -Y, R27
   \   00000002   93AA               ST      -Y, R26
   \   00000004   01D8               MOVW    R27:R26, R17:R16
     54          	while( *str != '\0')
   \                     ??SendStr_0:
   \   00000006   910C               LD      R16, X
   \   00000008   2300               TST     R16
   \   0000000A   F021               BREQ    ??SendStr_1
     55          	{
     56          		SendByte(*str);
   \   0000000C   910C               LD      R16, X
   \   0000000E   ....               RCALL   SendByte
     57          		str++;
   \   00000010   9611               ADIW    R27:R26, 1
   \   00000012   CFF9               RJMP    ??SendStr_0
     58          	}
     59          }
   \                     ??SendStr_1:
   \   00000014   91A9               LD      R26, Y+
   \   00000016   91B9               LD      R27, Y+
   \   00000018   9508               RET
     60          
     61          
     62          //采用查询方式接收一个字节

   \                                 In  segment CODE, align 2, keep-with-next
     63          unsigned char ReceiveByte(void)
   \                     ReceiveByte:
   \                     ??ReceiveByte_0:
     64          {
     65          	unsigned char data;
     66          	//等待接收数据,判断UCSR0A的RXC位是否为空
     67          	while( !(UCSRnA & (1 << 7)) );
   \   00000000   9B5F               SBIS    0x0B, 0x07
   \   00000002   CFFE               RJMP    ??ReceiveByte_0
     68          	data = UDRn;
   \   00000004   B11C               IN      R17, 0x0C
   \   00000006   2F01               MOV     R16, R17
     69          	//发送的话自带回显功能
     70          	UDRn = data;
   \   00000008   B90C               OUT     0x0C, R16
     71          //	SendByte(data);
     72          	
     73          	return data;
   \   0000000A   9508               RET
   \   0000000C                      REQUIRE _A_UCSR0A
   \   0000000C                      REQUIRE _A_UDR0
     74          }
     75          
     76          
     77          //接收一个无符号整形数

   \                                 In  segment CODE, align 2, keep-with-next
     78          unsigned int ReceiveUINT(void)
   \                     ReceiveUINT:
     79          {
   \   00000000   939A               ST      -Y, R25
   \   00000002   938A               ST      -Y, R24
   \   00000004   9726               SBIW    R29:R28, 6
     80              unsigned char data[6];
     81              unsigned int temp = 0;
   \   00000006   E080               LDI     R24, 0
   \   00000008   E090               LDI     R25, 0
     82              ReceiveString(data);
   \   0000000A   018E               MOVW    R17:R16, R29:R28
   \   0000000C   ....               RCALL   ReceiveString
     83          //    for(i =0;i < strlen(data);i++)
     84          //    {
     85          //        temp += data[i] * pow(10,strlen(data) - i -1);
     86          //    }
     87              temp = atoi((char *)data);
   \   0000000E   018E               MOVW    R17:R16, R29:R28
   \   00000010   ........           CALL    atoi
   \   00000014   01C8               MOVW    R25:R24, R17:R16
     88              return temp;
   \   00000016   018C               MOVW    R17:R16, R25:R24
   \   00000018   9626               ADIW    R29:R28, 6
   \   0000001A   9189               LD      R24, Y+
   \   0000001C   9199               LD      R25, Y+
   \   0000001E   9508               RET
     89          
     90          }
     91          
     92          //采用查询的方式接收一个字符串

   \                                 In  segment CODE, align 2, keep-with-next
     93          unsigned char * ReceiveString(unsigned char * pstr)
   \                     ReceiveString:
     94          {
   \   00000000   ........           CALL    ?PROLOGUE6_L09
   \   00000004                      REQUIRE ?Register_R4_is_cg_reg
   \   00000004                      REQUIRE ?Register_R5_is_cg_reg
   \   00000004   0128               MOVW    R5:R4, R17:R16
     95          	unsigned char data = 0;
   \   00000006   E0A0               LDI     R26, 0
     96          	unsigned char * ptemp = pstr;
   \   00000008   01C2               MOVW    R25:R24, R5:R4
     97          	
     98          	//将接收到的字符存到ptemp指向的字符串
     99          	do
    100          	{
    101          		data = ReceiveByte();
   \                     ??ReceiveString_0:
   \   0000000A   ....               RCALL   ReceiveByte
   \   0000000C   2FA0               MOV     R26, R16
    102          		* ptemp = data;
   \   0000000E   01FC               MOVW    R31:R30, R25:R24
   \   00000010   83A0               ST      Z, R26
    103          		ptemp++;
   \   00000012   9601               ADIW    R25:R24, 1
    104          	}while(data != '\r');		//约定字符串以‘#’结束
   \   00000014   30AD               CPI     R26, 13
   \   00000016   F7C9               BRNE    ??ReceiveString_0
    105          	
    106          	* (ptemp - 1) = '\0';		//将字符串末尾的‘#’修改为结束标志‘\0’
   \   00000018   E000               LDI     R16, 0
   \   0000001A   01FC               MOVW    R31:R30, R25:R24
   \   0000001C   9731               SBIW    R31:R30, 1
   \   0000001E   8300               ST      Z, R16
    107          	//发送结束标志
    108          	SendStr("\r\n");
   \   00000020   ....               LDI     R16, LOW(`?<Constant "\\r\\n">`)
   \   00000022   ....               LDI     R17, (`?<Constant "\\r\\n">`) >> 8
   \   00000024   ....               RCALL   SendStr
    109          	
    110          	return pstr;
   \   00000026   0182               MOVW    R17:R16, R5:R4
   \   00000028   E0E6               LDI     R30, 6
   \   0000002A   ........           JMP     ?EPILOGUE_B6_L09
    111          }
    112          
    113          //串口移植printf 

   \                                 In  segment CODE, align 2, keep-with-next
    114          PUTCHAR_PROTOTYPE
   \                     fputc:
    115          {
   \   00000000   ........           CALL    ?PROLOGUE4_L09
   \   00000004   01C8               MOVW    R25:R24, R17:R16
   \   00000006   01D9               MOVW    R27:R26, R19:R18
    116          	SendByte(ch);
   \   00000008   2F08               MOV     R16, R24
   \   0000000A   ....               RCALL   SendByte
    117          	return ch;
   \   0000000C   018C               MOVW    R17:R16, R25:R24
   \   0000000E   E0E4               LDI     R30, 4
   \   00000010   ........           JMP     ?EPILOGUE_B4_L09
    118          }
    119          
    120          

   \                                 In  segment CODE, align 2, keep-with-next
    121          int fgetc(FILE *f)
   \                     fgetc:
    122          {
   \   00000000   939A               ST      -Y, R25
   \   00000002   938A               ST      -Y, R24
   \   00000004   01C8               MOVW    R25:R24, R17:R16
    123              return ReceiveByte();
   \   00000006   ....               RCALL   ReceiveByte
   \   00000008   E010               LDI     R17, 0
   \   0000000A   9189               LD      R24, Y+
   \   0000000C   9199               LD      R25, Y+
   \   0000000E   9508               RET
    124          }

   \                                 In  segment NEAR_ID, align 1, keep-with-next
   \                     `?<Initializer for <Constant "\\r\\n">>`:
   \   00000000   0A0D00             DC8 "\015\012"

   \                                 In  segment NEAR_I, align 1, keep-with-next
   \   00000000                      REQUIRE `?<Segment init: NEAR_I>`
   \                     `?<Constant "\\r\\n">`:
   \   00000000                      DS8 3
   \   00000003                      REQUIRE `?<Initializer for <Constant "\\r\\n">>`
    125          
    126          /*			有问题，vsprintf死掉
    127          //串口移植printf
    128          void USART_printf(char * str,...)
    129          {
    130          	char buf[128] = {'\0'};
    131          	unsigned char i = 0;
    132          	va_list ptr;
    133          	va_start(ptr,str);
    134          	vsprintf(buf,str,ptr);
    135          	while(buf[i])
    136          	{
    137          		SendByte(buf[i]);
    138          		i++;		
    139          	}
    140          }
    141          */

   Maximum stack usage in bytes:

   CSTACK RSTACK Function
   ------ ------ --------
      0      2   ReceiveByte
      6      2   ReceiveString
        6      2   -> ReceiveByte
        6      2   -> SendStr
      8      2   ReceiveUINT
        8      2   -> ReceiveString
        8      2   -> atoi
      0      2   SendByte
      2      2   SendStr
        2      2   -> SendByte
      4      4   USART_Init
      2      2   fgetc
        2      2   -> ReceiveByte
      4      2   fputc
        4      2   -> SendByte


   Segment part sizes:

   Bytes  Function/Label
   -----  --------------
       3  ?<Constant "\r\n">
       3  ?<Initializer for <Constant "\r\n">>
      12  ReceiveByte
      46  ReceiveString
      32  ReceiveUINT
       8  SendByte
      26  SendStr
     108  USART_Init
       1  _A_UBRR0H
       1  _A_UBRR0L
       1  _A_UCSR0A
       1  _A_UCSR0B
       1  _A_UCSR0C
       1  _A_UDR0
      16  fgetc
      20  fputc
       7  -- Other

 
   6 bytes in segment ABSOLUTE
 268 bytes in segment CODE
   7 bytes in segment INITTAB
   3 bytes in segment NEAR_I
   3 bytes in segment NEAR_ID
 
 271 bytes of CODE memory (+ 7 bytes shared)
   3 bytes of DATA memory (+ 6 bytes shared)

Errors: none
Warnings: none
